:020000040000fa
:080000000002040000000000f2
:020000040000fa
:100008002c0500002c0500002c0500002c05000024
:100018002c0500002c0500002c0500002c05000014
:100028002c0500002c0500002c050000940300009e
:100038002c0500002c0500002c050000dc03000046
:100048002c0500002c0500002c0500002c050000e4
:100058002c0500002c0500002c0500002c050000d4
:100068002c0500002c0500002c05000050030000a2
:100078002c0500002c0500002c0500002c050000b4
:100088002c0500002c0500002c050000460400008b
:100098002c0500002c0300002c0500002c05000096
:1000a8002c0500002c0500002c050000aa1f0000ec
:1000b8002c0500002c0500002c0500002c05000074
:1000c8002c0500002c0500002c0500002c05000064
:1000d8002c0500002c0500002c0500002c05000054
:1000e8002c0500002c0500002c0500002c05000044
:1000f8002c0500002c0500002c0500002c05000034
:100108002c0500002c0500002c0500002c05000023
:100118002c0500002c0500002c0500002c05000013
:100128002c0500002c0500002c0500002c05000003
:100138002c0500002c0500002c0500002c050000f3
:100148002c0500002c0500002c0500002c050000e3
:100158002c0500002c0500002c0500002c050000d3
:100168002c0500002c0500002c0500002c050000c3
:100178002c0500002c0500002c0500002c050000b3
:100188002c0500002c0500002c0500002c050000a3
:100198002c0500002c0500002c0500002c05000093
:1001a8002c0500002c0500002c0500002c05000083
:1001b8002c0500002c0500002c0500002c05000073
:1001c8002c0500002c0500002c0500002c05000063
:1001d8002c0500002c0500009a0200002c050000e8
:1001e8002c0500002c0500002c0500002c05000043
:0801f8002c0500002c0500009d
:020000040000fa
:100208002c0500002c0500002c0500002c05000022
:100218002c0500002c0500002c0500002c05000012
:100228002c0500002c0500002c050000940300009c
:100238002c0500002c0500002c050000dc03000044
:100248002c0500002c0500002c0500002c050000e2
:100258002c0500002c0500002c0500002c050000d2
:100268002c0500002c0500002c05000050030000a0
:100278002c0500002c0500002c0500002c050000b2
:100288002c0500002c0500002c0500004604000089
:100298002c0500002c0300002c0500002c05000094
:1002a8002c0500002c0500002c050000aa1f0000ea
:1002b8002c0500002c0500002c0500002c05000072
:1002c8002c0500002c0500002c0500002c05000062
:1002d8002c0500002c0500002c0500002c05000052
:1002e8002c0500002c0500002c0500002c05000042
:1002f8002c0500002c0500002c0500002c05000032
:100308002c0500002c0500002c0500002c05000021
:100318002c0500002c0500002c0500002c05000011
:100328002c0500002c0500002c0500002c05000001
:100338002c0500002c0500002c0500002c050000f1
:100348002c0500002c0500002c0500002c050000e1
:100358002c0500002c0500002c0500002c050000d1
:100368002c0500002c0500002c0500002c050000c1
:100378002c0500002c0500002c0500002c050000b1
:100388002c0500002c0500002c0500002c050000a1
:100398002c0500002c0500002c0500002c05000091
:1003a8002c0500002c0500002c0500002c05000081
:1003b8002c0500002c0500002c0500002c05000071
:1003c8002c0500002c0500002c0500002c05000061
:1003d8002c0500002c0500009a0200002c050000e6
:1003e8002c0500002c0500002c0500002c05000041
:0803f8002c0500002c0500009b
:020000040000fa
:100400002f9920000e7f22000e01880000000000be
:10041000000020000000e000020032000001200087
:10042000200288000c000700606723000100200004
:1004300011000700000020000000e0000200320070
:100440000000020000000000323402000000000042
:100450000040da000000fe004440a90060042000d3
:100460000000e0000300320000002000a00188002e
:100470004440a80000000600910188008000780038
:100480000000eb0015003700e280400032a0b4000d
:100490009101ba00e280400032a0b4009102ba009b
:1004a000e280400032a0b4000002eb00472bde00e7
:1004b000f507b200602ce10004003a000059eb009f
:1004c0008301e900fdff3e00040037006128e100e0
:1004d000010032000082eb00040007001101ba00a5
:1004e0000200e000e8ff3a00000006003159ba00bf
:1004f0008301e9000c0032002159ba008301e900b0
:10050000080032000400e00003003a00e2804000ee
:1005100032a0b400f5ff370011d9ba008301e90019
:10052000faff3a008100e800e180400032a0b40008
:10053000000006003600f800809fbe00849fbe00c9
:100540000000fa00141a8000c222de0044062000d7
:1005500004aab90084027800f40f200011000900f9
:100560008482d800000278000442780004007800f9
:1005700068e9b700041a8000c222de0044062000a9
:1005800004aab90084027800f40f200011000900c9
:100590008482d80000027800044278000002fd0046
:1005a0006be9b7000002fd00b49620001442780009
:1005b000ea4f5200030036000042eb0004007800ce
:1005c00068e9b7000603a90091c0a9000080fa00fd
:1005d0004f02be004f00be003600f900004006008a
:1005e0000000fa0087a0a900848f20001442780040
:1005f0000482fb000402e9004f22de00044278007e
:100600000482fb00610262004222dd0016048000c9
:10061000b5ff2f00850263000502720014048800f4
:100620000080fa00000006000000fa00d922a800ad
:1006300087a0a90097a0a800940580000440a0000e
:100640000450a0000460a00094058800e4ff0700a7
:100650000080fa00000006003600f800809fbe000f
:10066000829fbe00849fbe00869fbe003400f800bb
:1006700000002000a00188000000fa00d8ff070059
:100680000080fa003400f9004f03be004f02be00a4
:100690004f01be004f00be003600f90000400600ca
:1006a0003600f800809fbe00829fbe00849fbe007f
:1006b000869fbe003400f80000002000a0018800e2
:1006c0000000fa00531407000c160700e44b8000ea
:1006d000f44b8800e44b80000402e800e44b8800ff
:1006e000b496200014427800ea4f5200030036000e
:1006f0000000eb00b4140700020037000000eb001c
:10070000801407008660a9000080fa003400f90018
:100710004f03be004f02be004f01be004f00be009f
:100720003600f900004006003600f800809fbe0049
:10073000829fbe00849fbe00869fbe003400f800ea
:1007400000002000a00188000000fa000001eb007a
:1007500061972000808c20000a120700744b8000f3
:100760000402e800744b8800754b8000441f200091
:10077000848f520007003a00f44b80008402e800a6
:10078000e44b8000848f520002003a000002eb002c
:10079000b44b88008460a9000080fa003400f9009e
:1007a0004f03be004f02be004f01be004f00be000f
:1007b0003600f900004006003600f800809fbe00b9
:1007c000829fbe00849fbe00869fbe003400f8005a
:1007d00000002000a00188000400fa006022b80098
:1007e000048fbe00054c800024032000848f52003b
:1007f000020034000002eb00044c8800242080003a
:10080000050020000400be00d70107000002be0062
:100810001e01be000400be00280207000002be0048
:100820000400be00620107000002be00040278005e
:10083000342388003423800034228800342280004e
:1008400034218800342180007423880074238000c0
:10085000742288007422800074218800044c800077
:100860000402e800044c880084e0a9000080fa003b
:100870003400f9004f03be004f02be004f01be001e
:100880004f00be003600f900004006003600f800b8
:10089000809fbe00829fbe00849fbe00869fbe00d8
:1008a0003400f80000002000a00188000000fa00d9
:1008b000c48f200014427800e04f52005d003a00df
:1008c000a4478000e00f520008003a00a4478000cf
:1008d0000402e800a44788000001eb008196200094
:1008e000808c2000e011070052003700a4478000f0
:1008f000e10f520008003a00a44780000402e8001b
:10090000a44788000001eb00b1962000808c2000f5
:10091000d511070047003700a4478000e20f5200be
:1009200008003a00a44780000402e800a4478800b9
:100930001200200001902000808c2000041207008b
:100940003c003700a4478000e30f52000c003a003f
:10095000a44780000402e800a4478800770f07003e
:100960000002be00844988009549880012002000da
:1009700001932000808c2000f51107002d00370026
:10098000a4478000e40f52000c003a00a447800006
:100990000402e800a4478800f80f07000002be0028
:1009a0002449880035498800120020004192200027
:1009b000808c2000e61107001e003700a44780004d
:1009c000e50f52000d003a0050c0b300200f0700a1
:1009d0000002be00444a8800554a880012002000e8
:1009e00081942000808c2000d9110700a44780004a
:1009f0000402e800a44788000e003700a4478000e6
:100a0000e60f52000b003a0020c0b300100f0700a1
:100a10000002be00e4498800f54988001200200069
:100a2000c1932000808c2000c91107000002eb0058
:100a3000a44788008760a9000080fa003400f9000c
:100a40004f03be004f02be004f01be004f00be006c
:100a50003600f900004006000040da000000fe0009
:100a60000a00fa00e20f500022003e00644c8000b1
:100a7000e10f5200060032008723200046232000a9
:100a80002423200005232000e08f530004003a00b7
:100a90008722200046222000242220000522200058
:100aa000000028001500600003003a00800b780069
:100ab00007002800958a7300054020009482620098
:100ac00001003a0014a0a00082027800060037005e
:100ad000940378000710b200fdff3200b103fb0061
:100ae000070b78008502e900e08f5200f8ff3a001a
:100af0000800370034002000c0bf9f00e2bf9f0005
:100b0000b4bf9f00d1bf9f006a805700cd07070088
:100b10006fb99700020078000080fa00000006001c
:100b200003f0a200889fbe008a9fbe008c1f780041
:100b30004a010700510133006450e1004f003200c8
:100b40006420e1005200320003826c0007003b0089
:100b50000905d0000306d000820f54000c065d008a
:100b60000200390002003200890178000306780093
:100b70008582550004003d000003fd008103fd0057
:100b80008502ea008b854200840f720002003b0060
:100b900060001000e08018006011b8000005eb0054
:100ba0007a28e1000a00390006007800c75ddd0000
:100bb000f707b200878075002d0037008281710031
:100bc0000a017800610560008180d1000080d300b7
:100bd0008502e900f9ff3b000604400087844800d5
:100be00002003b0060041400e0841c000988a3009c
:100bf000070032008a817100828171006101640006
:100c00008904d1000884d3008b05e8001700370061
:100c10000978a30013003a000b00e0001300340031
:100c20008b05e9000804440089844c000a447400e0
:100c30000978a3000d003a000b00e0000700340023
:100c40008b05e9000804440089844c0001003a0047
:100c50000b0020000978a300f7ff32000001eb0031
:100c600002003700828171000a017800c00007008d
:100c70000cf0a70001f0a000090137006420e1009a
:100c800002003a00838f6c00090133000801be00a6
:100c90000200be0002013700889fbe008a9fbe008e
:100ca0008c1f7800ed000700f400330003866c0011
:100cb0006450e1002e0032006420e1003300320075
:100cc0006150e1002f0032006120e100310032006c
:100cd00085855500eb07b0000900200008042000be
:100ce000050037000804440089844c000a003100e4
:100cf0000603430087834b000001530081815b00a2
:100d0000f8ff33000203be000800a00008044400fe
:100d100089844c00f6ff3900c639dd008301730079
:100d200001003200130020008904d1000884d300a0
:100d30000998a300050032000800a7000300a000e6
:100d40008904d1000884d3008b05e8008904d10010
:100d50000884d3000001eb000281d2008400070068
:100d600001f0a1000cf0a70001f0a000cc003700ba
:100d70006420e100ce0032000801be000200be0087
:100d8000f7ff37006120e100c90032006000b800c1
:100d9000f3ff37000000200001f82700f0ff3700c4
:100da0001400200022023700f4ff2f002002370039
:100db0000001be00940007000470a70003f0a1002a
:100dc0006509b100160032000d0035006828e10009
:100dd00006003500f0ff2f00f1ff27000300e000c0
:100de00013003b0001002800000005000000400047
:100df000818048008502e900fcff3a0008003700c6
:100e0000f88f420002003c008000eb00000005006b
:100e10008100d1000080d3008502e800fcff3a0089
:100e20000300e00002003b0060001000e0801800ba
:100e3000000006000001be00730007000470a70058
:100e400003f0a10003f8a30013003a006509b10004
:100e500010003200090035006928e1000200350069
:100e600001002800000005000000400081804800cb
:100e70008502e900fcff3a0000000600f88f4200fe
:100e8000050035008100d1000080d3008502e80014
:100e9000fcff3a00000006008000eb0000000500a7
:100ea0004f89de0082017800fc013700889fbe0078
:100eb0008a9fbe00008270000402710004827100eb
:100ec000260032000004be000200be006011b8001f
:100ed0006b092000950220000182cf000a00390032
:100ee0000541b1000082cf00070039000541b10083
:100ef0000982cf00040039000541b1000882cf000b
:100f0000010039000541b1000542520012003200d3
:100f10000a003b0082817100610164008100d10000
:100f20000080d3008984d3000884d3008b05e800b7
:100f30000442e800f7ff3a000700370008044400c5
:100f400089844c0000004800818048008b05e9003e
:100f50000442e900f9ff3a00050007004f05be0012
:100f60004f04be00000006006011b800cfff37003c
:100f700081002000618055000b003d000b00200027
:100f800061fe2f000100e1001d003400828171002c
:100f9000610164008904d1000884d3000000e800e6
:100fa000faff3a0071002000610064000300700045
:100fb000020060000900320061044400e0844c003b
:100fc0000988a500050032008b05e8006808e100eb
:100fd00002003a008904d1000884d300f20f2000f7
:100fe0000258e10005003d00c75ddd00f907b200d1
:100ff0008980750008007800000006000bf82700c3
:101000008b00780000000500c70ade00f107b2007f
:10101000f50fb20008003200e1cf420002003200ba
:101020000170a00024000500810f70000100320053
:101030000408050044000500810f700002003a001a
:10104000140005008502e9000000400081c048004e
:10105000fcff3b000170a000240005000004be005e
:10106000e9ff07000003be000405be000200be0049
:10107000e5ff0700844f7500000006000200be0077
:101080006450e100050036006420e10002003600f3
:101090000968a30001003a000800be000160a0003a
:1010a0004f0678004f05be004f04be00000006004a
:1010b000f0ff2f00f1ff2700f9ff3700889fbe00e7
:1010c0008a9fbe008c1f7800e4ff0700ebff33000f
:1010d00003866c006450e100240032006420e100cb
:1010e000270032006150e100220032006120e1005f
:1010f000210032008b854200eb07b1000134b800bb
:10110000003ab8000804420089844a00013ab80055
:101110000030b8008880400009014a000400330014
:101120000000400081804800020149008b05e90071
:10113000c909dd00830170000100320013002000a6
:10114000c814de004814dd004709de001200b200ba
:10115000c808de000884700085ff070001f0a100c8
:101160000cf0a70001f0a000cdff37006120e100e6
:10117000cfff32000801be000200be00f7ff3700bb
:101180006150e100fcff3a00c9ff37000001eb00ad
:10119000520137006022b800060220000000d00093
:1011a0008180d2000482d2008582d2000000a0009b
:1011b0000202520083825a00030031000202420000
:1011c00083824a000000a1000603e900f3ff3a0011
:1011d00000000600efff07000400be00000006004c
:1011e000889fbe008a9fbe003004be002005be005e
:1011f0000404440085844c0006054d0087854d009d
:101200000898be000a90be000440e10005c8e10055
:1012100006d0e10007d8e10002003100680040007c
:101220001008e8004f05be004f04be000000060095
:101230001000fa00889fbe008a9fbe0011002000a7
:101240000605be000404be003002be002003be003e
:10125000c4b79f00d5b79f00e6b79f00f7b79f00c0
:101260000802520089825a000a035b008b835b00ec
:1012700084bf9f0095bf9f00a6bf9f00b7bf9f0080
:101280000498be000698be004fb29700dfb29700e8
:101290006fb39700ffb397000820e10009a8e100b1
:1012a0000ab0e1000bb8e100010039008000eb005a
:1012b0004f05be00108810004f04be000080fa00e9
:1012c000000006001400fa00889fbe008a9fbe003e
:1012d0008c9fbe000006eb003e000700ccb79f00cd
:1012e000bcb79f00acb79f009cb79f008cb79f0016
:1012f0000605be000404be000d0420004fb3970095
:10130000bfb29700860343002fb29700e00f53004f
:1013100004003d003d0007000f004000b0ff070043
:1013200003003700390007000f004000c0ff07002e
:10133000cfb2970095bf9f00e08f520009003500a3
:101340002b00070014002000050020006033b800c7
:1013500000007200818072000201730083817300bb
:101360001c0007000c06e8008d0f5600e3ff3a0052
:101370001fba9700e00f520005003d000802be00b2
:101380000a03be0000fe2f000f00400094ff07007c
:101390004faa9700e00f520008003a000fb49700e0
:1013a0009fb497002fb59700bfb59700d8b79f009f
:1013b000e9b79f00fab79f008bbf9f000c000700a2
:1013c0004f06be004f05be004f04be000080fa006d
:1013d00000000600010007000000060090b79f0013
:1013e000a1b79f00b2b79f00c3b79f0000000600df
:1013f00001000700000006001fb09700afb0970083
:101400003fb19700cfb19700000006004f2bde00e0
:10141000f9ff070086837300858242004f23de00b8
:10142000a7b79f00868272000402420095b79f0012
:10143000ffaa97004f2bde00858242000602720051
:1014400084b79f006faa97004f23de00040242007a
:1014500086827200f5af9f004f18de000002720016
:10146000e5ff0700e4af9f000000400081804800d6
:1014700002014900838149000802be000a03be0040
:10148000d6ff070000fe2f0000000600881f78002e
:1014900018002000881f78008aff07008f87e90066
:1014a0004f04780000000600801feb0085ff070056
:1014b0008f87e90000000600889fbe008a9fbe005b
:1014c000e00f5000e08f5800e00f5900e08f590006
:1014d0000c003d006044b8006055b80000005400a6
:1014e00081805c0002015d0083815d0018002000a6
:1014f0001500070008003d00180007000004eb007d
:10150000050037000004eb000f00070002003d005b
:101510001200070018002000dcff0700e00f540055
:10152000060032006022b8006033b80000005200ac
:1015300081805a0002015b0083815b004f05be0081
:101540004f04be0000000600e00f5200e08f5a007a
:10155000e00f5b00e08f5b00000006006044b80015
:101560006055b8000402540085825c0006035d00eb
:1015700087835d0000000600889fbe008a9fbe0032
:101580008c1f7800e00f5000e08f5800e00f5900ea
:10159000e08f59000d003d006044b8006055b80070
:1015a0001c0020000000540081805c0002015d00ee
:1015b00083815d000820e10009a8e1000ab0e10094
:1015c0000bb8e1000d003d00080037000006eb00fd
:1015d000e00f5200e08f5a00e00f5b00e08f5b00ed
:1015e00006003d006044b8006055b8000402540095
:1015f00085825c0006035d0087835d00aaff07000b
:10160000e00f5600060032006022b8006033b800d8
:101610000000520081805a0002015b0083815b0060
:101620004f0678004f05be004f04be0000000600c4
:10163000889fbe008a9fbe00841f780087fe070037
:101640004f00780011003300f0ff2f00838f6c00f3
:1016500006003b00040565000a00a70008003700eb
:1016600009f0a6001000200008003700820f540087
:10167000838f5c00030039001000200001003e0051
:101680000000200009f0a7000000ea004f05be009e
:101690004f04be000000e00000000600881f780034
:1016a000030478000300e00007003d006000100024
:1016b000e080180060011900e081190002003b0081
:1016c00001f02d0003003700f8fd070008f0a70027
:1016d00001f0a0004f04780000000600889fbe00c3
:1016e0008a9fbe008c9fbe00820578000004be0069
:1016f00045fe07000800be006420e1000700390035
:1017000002003a00f1ff2700f0ff2f000160a00067
:1017100012022000824c8800550037006120e10051
:1017200003003a000b00a70001f823005000370027
:1017300001f0a100020021009364240098fd07003d
:101740000800be0004003500b2fd2000930c240008
:101750004b0007000004be000005eb000b00a600d4
:101760004f0dde0001f0a1000004be0032982f00f2
:1017700023ea230051fe07000001eb0003f02300e1
:101780000b00a70003f82300e6fc070088fd070014
:101790000000a7000a00a200c1fd07000b00e00046
:1017a000030032000200200003f02300dcfc0700ed
:1017b00001f0a2000006be000200200093042400f5
:1017c0003efe07000801be00d6fc0700809fbe0059
:1017d0000c00be0022a22a00d3a7230037fe070078
:1017e0004f01be00cffc07000004be0001f0a100c5
:1017f000020020000398230069fd07000800be00d6
:10180000190035000001be002cfe07000006be00d6
:10181000b2c52900e362230028fe070022222b0024
:10182000f3942b00bffc07000c01be0023fe070051
:10183000e273280083c02300bafc07000c01be003d
:101840001efe070042aa2a00a3e22b00b5fc0700f7
:101850000c01be0019fe07000801be0017fe0700bc
:101860000801be00affc07000a00a70001f0a200bb
:101870004f06be004f05be004f04be00000006002c
:101880000400200000003700889fbe008a9fbe0031
:101890008c1f78004f26dd00f0fd0700f7fd3300b8
:1018a0006120e100430032006250e10041003e004f
:1018b0003e0039006420e1003c0032000582550002
:1018c0000f003b000402e80038003a00800f53008c
:1018d000818f5b00350034000800be0003f0a100da
:1018e00001f0a60003f0a0000cf0a7008dfc07009b
:1018f000ebfd37000603430087834b000c46460090
:101900000005530081855b00020033000a03be001e
:101910000c00a0000402e900f6ff3b0085057800fa
:101920000602430087824b0004003a006000b800c2
:1019300009f0a70001f0a000d9fd37000002520015
:1019400081825a000704e0000400330006034300cc
:1019500087834b008b05e900faff37000905780003
:101960000604be000203be006011b80080fd07003f
:10197000e00f5200e08f5a000700350002003c00e3
:101980000c08a300040032000601be0003f0a00012
:101990000cf0a70063fc07000a85680001f0a100b5
:1019a0000af0a70001f0a000bdfd37000800be004e
:1019b000bbfd3700100220000cf0a600804c880010
:1019c000bbfd3700889fbe000004be000500370045
:1019d0000000fb008900780019000700e10f4000bb
:1019e0000400320038407800e04f5000f8ff3a0021
:1019f0000000eb004f04be000000060061ad2200b5
:101a0000881f7800efff070061ad22000004780016
:101a1000a00020000a000700080078004f047800aa
:101a20000000060060ad22000000fa006881570047
:101a3000cfb89700460007000080fa0000000600bb
:101a4000889fbe00010478008084eb00380290007b
:101a5000e20262003b00320004037800980290002a
:101a60000620b20002003a00e08f520035003a0032
:101a70000490a0008004780034049800f90fb200ac
:101a8000e08f520002003a00a8029000050c780096
:101a9000ea8f540005003a000408b20003003a003f
:101aa00088007800d0002000e5ff070018029000b1
:101ab000d8029000850f52000b0032000402e800ab
:101ac00015c0b3001404980018027800094a780081
:101ad000040ce80004af2200054a7800ea8f5400a5
:101ae00018003a00050037000940780088007800a7
:101af000920307008004780012003700380290003b
:101b00000410b2000f00320018019000a8009000ed
:101b100048009000d2fb070018029000840f50008c
:101b200004003200380290000403b300340498002b
:101b30008084eb000002eb0014049800280290005f
:101b4000040c7800090078004f04be000000060075
:101b5000ef03b000889fbe008a9fbe008c9fbe002e
:101b6000800678008e1f78000007eb00d1af9f0041
:101b7000a2b79f0065033700dfa8970054c2b300e7
:101b80008100e800d1af9f00844f500006003a006a
:101b9000010278000006eb0001c3b30000c2b300ed
:101ba000b7c2b3000e0037003d0290000404b2003b
:101bb000040032001d027800004a7800840ee8001c
:101bc000050037000000fb008d0078009cff070037
:101bd000e10f40004d0332000e07e8004b033700d1
:101be00084027800d2c2b30034437800824f53009d
:101bf0000900320005003c00804f5300080032000d
:101c0000874f53000c003a0007003700814f530004
:101c100009003a00060037000c30a000f0ff370042
:101c20000c00a000eeff37000c10a000ecff370006
:101c30000c20a000eaff37006202660001003200bb
:101c40000c00a10068026600010032000c20a10017
:101c50000602fb000403b100e90f52000c003e0035
:101c6000050378000002eb00b603fb006a22b9000e
:101c70000703b10086027800048243009603fb004c
:101c80000703b100e98f5300f7ff36000800370063
:101c90000002eb00a7c2b300874f530004003a00d4
:101ca000afb197008502e80043027800a3b79f0018
:101cb0000003eb0096b79f00e6c2b300954f1300f8
:101cc0000c003a000ce0a00064435300d54f130011
:101cd00003003200050378000000eb000900370024
:101ce000afb397008502e80047047800a7b79f00cc
:101cf00098b79f0005037800090037006a00b90013
:101d00000080430086027800b603fb000703b100a1
:101d1000e98f5300f9ff360090b79f00f5ff3700b9
:101d2000b6427800cac6b300d6af9f008acf520031
:101d3000250032000f003c0036c6b30086cf5200ab
:101d40009d00320004003c00e0cf5200f40232005b
:101d50006b4353000f00370046c6b30086cf5200d6
:101d6000170032006543430086cf5200b1003a00ad
:101d70001300370036c7b30086cf52002000320070
:101d800007003c006443530086cf52001500320028
:101d90000643e80086cf5200a6003a001400370040
:101da00056c7b30086cf5200a900320063434300f8
:101db00086cf52009f003a00e5779f000e00370063
:101dc000e5779f00a4003700f003660005012000be
:101dd00001003200050028008c82720005067800a0
:101de000cfff3700e5779f000c60a0009a00370016
:101df000e5779f000c50a0000c70a0009600370003
:101e0000afb59700e5779f00cb027800abb79f0096
:101e1000b5b79f00e08f520002003a0021a22200d5
:101e2000b1b79f003fb397008002eb00010037007d
:101e30008502e800e6c37a00e0cf5300fcff3a00d9
:101e4000c5b79f001fb19700e00f51000500320099
:101e5000cfb19700830f5100020031008202780059
:101e6000c5b79f00cfb297000004eb00850f52006a
:101e700001003600050452006806660009c2b3007e
:101e80000f003200290037003d0290000404b20028
:101e9000040032001d027800094a7800840ee80030
:101ea000050037008d00780000022000e4fe0700e6
:101eb000e10f4000010032000e07e8000804e900cd
:101ec000e00f5400f0ff3a000084eb0017003700e9
:101ed000bd0290000504b2000900320088027800bb
:101ee0009d03780035437800864b78000504780020
:101ef000870ee800e04f53000a003a001000370058
:101f0000880278008d0078003500fb0084bf9f00b8
:101f100005047800cafe07000fba9700e10f4000e1
:101f2000070032000e07e8000500370008027800bd
:101f30003fb49700cfb497005fb59700efb5970017
:101f4000890278008504e900e08f5200e0ff3a0042
:101f5000b8b79f00c9b79f00dab79f00ebb79f00e3
:101f60000404780009c2b300e00f56000f003a00e5
:101f7000660237003d0290000404b2000400320003
:101f80001d027800094a7800840ee8000500370039
:101f90008d00780000022000a9fe0700e10f40003c
:101fa000010032000e07e8000804e900e00f5400c9
:101fb000f0ff3a0055023700afb09700700366009b
:101fc00041047800a1b79f00cfc4de000905780066
:101fd0008a0578000800be000a01be004800de0045
:101fe000c80add0000807200e0779f00e00f530018
:101ff00009003200e04f500007003200e14f40007e
:102000000500320026002000f0779f00887f9f00a7
:10201000c6b79f000300370017002000c7b79f0016
:10202000f8779f0078fb2f0008844700b8b79f001f
:1020300084ff370069fb2f001a00200089844700c5
:10204000e5779f00b9b79f00cab79f007dff3700b3
:10205000e5779f000c0cb3008c027800050cb200f1
:102060003b003a00e00f560005003d00afb297007c
:102070004501be004500be00a5b79f000f00370018
:10208000f0026600120032002fb497004803be0031
:10209000f69f9f0087a79f00a8b79f009802900017
:1020a000cfaade0095a79f00a5a79f007f98970065
:1020b0008fa097001fa19700afa19700b0b79f0016
:1020c000c1b79f00d2b79f00e3b79f000b00370056
:1020d000afb09700c102780005047800cfc4de00dd
:1020e000090578008a057800a1b79f00b8b79f005e
:1020f000c9b79f00dab79f00ebb79f003fb09700ca
:10210000cfb097005fb19700efb19700e00f50009c
:10211000e08f5800e00f5900e08f590032003d0079
:102120006000b8006011b8003fb49700cfb49700ca
:102130005fb59700efb597003c00b300080450006e
:10214000898458000a0559008b8559002200370000
:10215000e00f560005003d00afb297004501be00fc
:102160004500be00a5b79f000f003700f0026600d3
:10217000120032002fb497008004eb004803be0029
:102180000005eb0096af9f00a7af9f00b9af9f007f
:10219000caaf9f001fa89700afa897003fa997005c
:1021a000cfa99700a8b79f00b0b79f00c1b79f0005
:1021b000d2b79f00e3b79f000b003700afb0970086
:1021c000c1027800a1b79f00050478000900200033
:1021d0000a0020000b002000b8b79f00c9b79f007d
:1021e000dab79f00ebb79f009fb49700e08f5400d1
:1021f0000d003a001a0020003fb09700cfb09700c2
:102200005fb19700efb197009ab79f00e00f5000c1
:10221000e08f5800e00f5900e08f590002003200b3
:102220008000eb0091b79f000c01780005042000ae
:10223000020cb20082b79f00850f510034003200bb
:1022400003003c00e00f5100080032004800370056
:10225000050820008fb19700858f510014003200cf
:10226000050c2000858f510041003a0026a3220072
:1022700015c0b3003600be003601be003fb4970063
:10228000cfb497005fb59700efb597000040e1002d
:1022900001c8e10002d0e10003d8e10033003900b9
:1022a0008542e800f4cf5200f2ff3a002f003700d9
:1022b00015c0b30000012000010020006011b8002b
:1022c0003fb49700cfb497005fb59700efb5970084
:1022d0000040e10001c8e10002d0e10003d8e100c4
:1022e00022003900490020000000d0008180d20087
:1022f0000281d2008381d2008904e900faff3a000a
:102300008542e800f0cf5200edff3a001700370099
:1023100015c0b30080002000010020006011b8004b
:102320003fb49700cfb497005fb59700efb5970023
:102330000040e10001c8e10002d0e10003d8e10063
:102340000a003900390020000000d0008180d2004e
:102350000281d2008381d2008904e900faff3a00a9
:102360008542e800f5cf5200edff3a00e5779f0087
:102370006f7597009fb597008a02fb008b8f520004
:1023800002003d00eb779f00040037001fb097006c
:10239000850f500001003d0095b79f00e00f5200ef
:1023a00003003200e3026600010032000402e9008b
:1023b0000500240085026600060032009fb09700e9
:1023c000810f520002003400010252000100370068
:1023d0000002eb006f7197008001eb008202fb00ae
:1023e000f3af9f00850f52000200340085025200b7
:1023f000f5af9f00640266003b003200e202660017
:1024000061026600e08f520011003200bd029000b0
:102410000504b200080032009d027800b6c2b30085
:10242000e00f52000100320006c3e800864a78003f
:10243000850ee80015003700b0022000e00f5200c2
:10244000010032000080e8008d0078000c003700a9
:10245000e00f52000e0032003d0290000404b20072
:10246000050032001d02780005c2b300054a78005d
:10247000840ee800050037008d007800000220007f
:102480006ffd0700e10f4000010032000e07e80079
:102490007faa9700e00f52004f00320008c3b3003c
:1024a000840478003d0290000404b200040032006d
:1024b0001d027800084a7800840ee8000500370005
:1024c0008d007800000320005dfd0700e10f400053
:1024d000010032000e07e8008904e900f1ff3a002c
:1024e000f9af9f003c003700ffaa9700e08f520031
:1024f000140032006802660012003a0008c2b300fd
:10250000850478003d0290000404b200040032000b
:102510001d027800084a7800840ee80005003700a4
:102520008d0078000002200045fd0700e10f40000b
:10253000010032000e07e8008904e900f1ff3a00cb
:10254000f9af9f00e202660061026600e08f520070
:1025500011003200bd0290000504b20008003200f4
:102560009d027800b6c2b300e00f520001003200b5
:1025700006c3e800864a7800850ee800150037009b
:10258000b0022000e00f5200010032000080e8009d
:102590008d0078000c003700e00f52000e00320072
:1025a0003d0290000404b200050032001d027800d4
:1025b00005c2b300054a7800840ee8000500370024
:1025c0008d007800000220001dfd0700e10f400093
:1025d000010032000e07e8001fb39700a5a22200f9
:1025e0000602e900f0046600c223dd000c05780055
:1025f000c7a79f000a02b2006323b900e99f9f00aa
:10260000060478004322dd00b8a79f00850242003f
:10261000da9f9f00e5af9f00a30037009fb59700aa
:102620000fb097008b05e900010420009bb79f00c5
:10263000810f50007300320003003c00e00f500097
:10264000080032007e003700040820000fb1970018
:10265000840f510056003200040c2000840f5100fa
:1026600077003a00e00f56001f003d00efa99700e9
:102670003304be002305be003fb09700cfb09700e3
:102680005fb19700efb197000802be000a03be00d9
:102690007efb07000802be000a03be00e0779f0031
:1026a0000000fb00cf80de0001017800820178008d
:1026b000ec0007003fb29700cfb297005fb39700de
:1026c000efb397000002520081825a0002035b00c0
:1026d00083835b00b4b79f00c5b79f00d6b79f0048
:1026e000e7b79f002e003700ef9a9700e08f520067
:1026f000220032006fab97003fb29700cfb2970035
:102700003604be002605be000400be000801be005f
:1027100084bf9f00f5b79f000005eb009dfa0700fe
:102720000801be00e0779f000000fb00cf80de00c4
:10273000c60007000fba9700ffb297008aaf9f004c
:102740000004520081845a00d8a79f00e9a79f0087
:102750008004eb00f9a79f005fa09700efa097000f
:102760007fa197008fa99700b0b79f00c1b79f00c6
:10277000d2b79f00e3b79f0009003700efa897008a
:102780003fb1970011027800110009000481d800c0
:10279000a4002000110009000480d800e1779f0008
:1027a000ef7197000343b000e3779f0024003700e8
:1027b00014a12200df9a9700e08f5200010032003e
:1027c00004a022003fb09700cfb097005fb1970000
:1027d000efb197004fa397000603e900050033000f
:1027e0008301d1000281d3008180d3000080d30017
:1027f000f9ff37006f00600064407800e0779f00c9
:102800000f0037003fb29700cfb297005fb3970039
:10281000efb397003fa497000804e90005003300d8
:102820008703d1000683d3008582d3000482d300be
:10283000f9ff3700674262000443b000e4779f006d
:102840003d0290000404b200070032009d027800af
:102850006f729700844a7800850ee800e04f5200be
:1028600007003a0007003700ef7497008d007800ea
:102870000900fb0072fc0700e10f4000010032007c
:102880000e07e8004fa59700bfa597006fa8970017
:1028900064055500e385550068005000caa79f00f5
:1028a000bba79f00e0af9f009fb09700e08f500054
:1028b0005aff3a0068066600140032007fa99700ac
:1028c000e00f51001100340008c2b3008204780008
:1028d0003d0290000404b200040032001d027800a2
:1028e000084a7800840ee800050037008d00780063
:1028f0000002200052fc0700e10f400001003200fe
:102900000e07e8008904e900f1ff3a00dfa997000b
:1029100013407800e0779f00e04f500096fc3a00ab
:102920000e0078004f0778004f06be004f05be002e
:102930004f04be00ef03b100000006000200fa00e1
:10294000889fbe0001047800a0ff9f00380290001d
:10295000840278000504b200020032000000fb008f
:1029600035003700e202620005003a000403b300bc
:1029700015049800340498000080eb002e00370006
:10298000d8049000e08f540006003a0012002000a6
:10299000e68057004800900031f8070019049800bd
:1029a00023003700a8029000e08f520008003a0090
:1029b00035af22000430a00025049800050c7800f3
:1029c0003404980025002000550498001504980050
:1029d00018019000a80090004800900020f807001f
:1029e000280290008082eb0015049800affa97004f
:1029f000054a7800040ce8002ffa9700ea4f5200cd
:102a00000b003a00380290000410b20008003200b7
:102a100018019000a80090004800900010f80700ee
:102a20000002eb00a802900014049800050c780046
:102a30002ffa97000400fb004f04be000080fa004c
:102a40000000060000c0da0000000600020ab9001b
:102a5000001bb9000200b800810042008100430061
:102a600000000600889fbe008a9fbe008c1f780071
:102a70000006eb00e00f5000e08f5800e00f590017
:102a8000e08f590007003d006044b8006055b80071
:102a90001c0020000000540081805c0002015d00e9
:102aa00083815d00e00f5200e08f5a00e00f5b0071
:102ab000e08f5b0007003d006044b8006055b8003f
:102ac0000c00a2000402540085825c0006035d0035
:102ad00087835d000c000700e00f560006003200ff
:102ae0006022b8006033b8000000520081805a00b4
:102af00002015b0083815b004f0678004f05be003a
:102b00004f04be0000000600889fbe008a9fbe00e2
:102b10008c9fbe000404b8000506b8008904460076
:102b200060854e000606b8000a054600e0854e00a6
:102b30000706b8008b054600040eb800890446005d
:102b40000a854e00e0854d00050eb8000a054600d6
:102b50008b854e00060eb8008b0546000416b800a3
:102b60000a0546008b854e000516b8008b05460009
:102b7000041eb8008b0546000800be000a01be0016
:102b80004f06be004f05be004f04be000000060009
:020000040000fa
:102b9000436f00006d7000003a200000256c0000bb
:102ba000752000002020000000490000443a000089
:102bb000202500006c750000200a00000064000061
:102bc000616400006f7300005b250000755d00000c
:102bd0003a200000256400000a0000005254000062
:102be000523a000020250000752000000a00000075
:102bf000000000005065000064690000646f000080
:102c00003a2000000000000090d000000300000007
:0c2c100000e10000809600009800000029
:020000040000fa
:102c1c000200fa00000f780006382000c5382000aa
:102c2c0004382000048252000482d10004024200c5
:102c3c00840278001e02780004aab900040278000d
:102c4c00840243001502780004f0a000840a780086
:102c5c000080fa00000006000200fa00000f780065
:102c6c0006382000c53820000438200004825200a9
:102c7c000482d10004024200840278001e02780013
:102c8c0004aab900040278008402430015027800fb
:102c9c0004e0a100840a78000080fa00000006001d
:102cac000200fa00000f780006382000c53820001a
:102cbc0004382000048252000482d1000402420035
:102ccc00840278001e02780004aab900040278007d
:102cdc00840243001502780004d0a000840a780016
:102cec000080fa00000006000200fa00000f7800d5
:102cfc0006382000c5382000043820000482520019
:102d0c000482d10004024200840278001e02780082
:102d1c0004aab9000402780084024300150278006a
:102d2c0004d0a100840a78000080fa00000006009c
:102d3c000200fa00000f780006382000c538200089
:102d4c0004382000048252000482d10004024200a4
:102d5c00840278001e02780004aab90004027800ec
:102d6c0084024300150278000440a1000450a00026
:102d7c00840a78000080fa00000006000200fa00c5
:102d8c00000f780006382000c538200004382000d9
:102d9c00048252000482d1000402420084027800b2
:102dac001e02780004aab9000402780084024300d1
:102dbc00150278000400a1000410a100840a780018
:102dcc000080fa00000006000400fa00000f7800f2
:102ddc001107980026382000c53820000438200040
:102dec00048252000482d100040242008402780062
:102dfc001e02780004aab900040278008402430081
:102e0c001e029000044278000474a1000483fb00ad
:102e1c00f4072000040263009503780006f82f00e5
:102e2c000683630006027200840a78000080fa00b0
:102e3c00000006000400fa00000f7800110798004b
:102e4c00c538200004382000048252000482d100ce
:102e5c0004024200840278001e02780004aab90021
:102e6c008402780044382000048242009e029000c4
:102e7c00050a78000080fa00000006000400fa0041
:102e8c00000f78001107980086382000c538200004
:102e9c0004382000048252000482d1000402420053
:102eac00840278001e02780004aab900040278009b
:102ebc00040243009e029000050a78000080fa008c
:102ecc00000006000400fa00000f780011079800bb
:102edc00c538200004382000048252000482d1003e
:102eec0004024200840278001e02780004aab90091
:102efc0084027800a4382000048242001e03900053
:102f0c00f5032000850263008502e900050a7800bc
:102f1c000080fa00000006000200fa00004f780062
:102f2c00114798009e4278000582fb001500200096
:102f3c00042add000482ea0084027800c4168000b2
:102f4c0004826200c41688001e4290000482fb00ba
:102f5c000402ea00840278005417800084826a001c
:102f6c001e4378000682fb00160020000432dd00b0
:102f7c0084826200d416800004826a00d416880011
:102f8c000080fa00000006000600fa00000f78002e
:102f9c0021479800324798004347980054479800bf
:102fac00de4090004e409000dbff07001e007800d2
:102fbc000d0007000080fa00000006000400fa0073
:102fcc00000f78002147980032479800be409000cf
:102fdc002e409000d0ff07001e0078000200070072
:102fec000080fa00000006004000fa00701f9800f4
:102ffc0014c0b300044f7800043080000480a1009a
:10300c000490a10004a0a0000430880005308000ca
:10301c00040e20008482620004082000848f520079
:10302c00faff3a0014c0b3001447980044c0b30030
:10303c00244798002e4290000442e900634262004b
:10304c000482fb00630262004622dd0086308000b1
:10305c00f5f32f00850263000502720084308800ae
:10306c0014c0b3003447980084c0b30044479800a0
:10307c004e4290000442e900674262000482fb0069
:10308c00670262004322dd009630800075fc2f0041
:10309c0085026300050272009430880014c0b300ee
:1030ac005447980012e6a80014c0b3006447980077
:1030bc0064c0b300744798007e4290000442e9005b
:1030cc00674262000482fb00670262004822dd0056
:1030dc0096308000f58f2f00850263000502720088
:1030ec009430880014c0b300044f980054c0b3004f
:1030fc00144f98001e4a90000442e9006742620097
:10310c000482fb00670262009630800085ff2f006e
:10311c00850263000502720094308800fe1a90004c
:10312c0084022000110009008482d800000278007b
:10313c008402780014c0b300244f980065079800ef
:10314c006e029000044278000442e900f443b2009d
:10315c008482fb00f403200004826200863080002d
:10316c0005fc2f0085026300050272008430880084
:10317c0014c0b300644f980012c6a80014c0b3006a
:10318c00744f980084c0b300045798000e529000fe
:10319c007f4262000482fb007f02620036308000b6
:1031ac0005fe2f0085026300050272003430880092
:1031bc0014c0b300145798003430800004d0a10020
:1031cc0004e0a00004f0a0003430880014c0b30068
:1031dc00245798000002eb00240f9800f4ff2f00f6
:1031ec00f5ff2100340f9800450f980014002000c3
:1031fc00540f9800f4002000640f98000002eb00bc
:10320c00740f98002e529000046798000006a800d6
:10321c002e0a90000402420004024200840278004c
:10322c000464200004824200141798002e0a9000b7
:10323c00040242000402420084027800246420004c
:10324c0004824200241798002e0a900042a2de004d
:10325c0004024200840278000462200004824200ce
:10326c00341798002e0a900043a2de00040242009c
:10327c008402780084612000048242004417980084
:10328c005e0a9000e00f520025003200be0a90004a
:10329c002e129000050a78003e0a9000ce0a90008b
:1032ac0040aade00cfa2de00044278006342620036
:1032bc0063426200634262009e1290000482fb0033
:1032cc006302620095037800c6ff2f00068363003b
:1032dc0006027200840a78003e0a9000ce0a900022
:1032ec0042aade00cfa2de0084027800f47f200028
:1032fc0084826200f47f200004826200f57f20004b
:10330c00050262009e1290004522dd001503780034
:10331c007f03630006027200840a780015003700f0
:10332c002e1290008002eb00050a78009e1290008d
:10333c00150278000400a1000410a100840a780092
:10334c00be0a9000f47f200084826200f47f20008b
:10335c0004826200f57f2000050262009e1290003c
:10336c004522dd00150378007f036300060272001e
:10337c00840a78003e129000940278002e5290003d
:10338c000482fb00630262004222dd00f600200092
:10339c000432dd000482ea00848262003e12900056
:1033ac00050a78003e129000940278002e5290008c
:1033bc000482fb00630262004222dd006e0b90006f
:1033cc000432dd00040378000503730086027800e4
:1033dc003e129000050a78004e129000940278007c
:1033ec002e5290000482fb0067026200040242002d
:1033fc00360020000432dd000482ea008482620080
:10340c004e129000050a78004e129000940278003b
:10341c002e5290000482fb006702620004024200fc
:10342c007e0b90000432dd00040078000500700073
:10343c00800278004e129000050a780015002000da
:10344c002e0a9000042add0084027800a43080004b
:10345c0005027200a4308800ae509000216f9800d5
:10346c000006a90014c0b300346f98000002eb00f2
:10347c00641798006022b80074179800051f980014
:10348c0014002000141f98000002eb00241f980069
:10349c003e6a9000647798000006a800056320003f
:1034ac006e129000040242000402420004824200a8
:1034bc00441f9800256320006e1290000402420005
:1034cc000402420004824200541f98001e1a90000d
:1034dc00e00f520025003200fe1290005e1a9000a0
:1034ec00050a78007e1290008e1a900040aade0029
:1034fc00cfa2de00044278006342620063426200a5
:10350c0063426200ce1a90000482fb0063026200e8
:10351c0095037800c6ff2f00068363000602720035
:10352c00840a78007e1290008e1a900042aade0067
:10353c00cfa2de0084027800f47f20008482620037
:10354c00f47f200004826200f57f200005026200f7
:10355c00ce1a90004522dd00150378007f0363002e
:10356c0006027200840a7800150037005e1a90007b
:10357c008002eb00050a7800ce1a90001502780044
:10358c000400a1000410a100840a7800fe1290002f
:10359c00f47f200084826200f47f200004826200a9
:1035ac00f57f200005026200ce1a90004522dd0056
:1035bc00150378007f03630006027200840a78000a
:1035cc002e1a90000400a20004f0a7000402ea00e6
:1035dc000402e9004f22de0004427800ce1a90006b
:1035ec000482fb00610262004322dd009503780037
:1035fc0076ff2f000683630006027200840a7800af
:10360c003e6b9000467f98000006a90014c0b300e2
:10361c00547f9800043080000480a1000490a10025
:10362c0004a0a1000430880005308000040e2000a6
:10363c0004826200e00f5200fbff3a000002eb0034
:10364c00543188005431800044318800443180006a
:10365c0014318800143180000431880030e6a80051
:10366c0031e6a80032e6a80033e6a80034e6a8004c
:10367c0035e6a80036e6a80037e6a80084318000bd
:10368c000400a0000410a000843188008431800064
:10369c000480a0000490a000843188009431800044
:1036ac000400a0000410a000943188009431800024
:1036bc000480a0000490a00094318800a431800004
:1036cc000400a0000410a000a4318800a4318000e4
:1036dc000480a0000490a000a4318800b4318000c4
:1036ec000400a0000410a000b4318800b4318000a4
:1036fc000480a0000490a000b43188000000eb000e
:10370c0067fd07000000eb0053fd07000000eb0015
:10371c0087fd07000000eb0098fd070021642000e6
:10372c000000eb00d5fd0700810020000000eb003d
:10373c00e4fd0700610420000000eb00a2fd07007f
:10374c0004002000840078000000eb00b9fd0700a5
:10375c000000eb002efd07002000200062fd07009a
:10376c00200020003cfd07002000200070fd070019
:10377c002000200081fd07000164200020002000b3
:10378c00befd07008100200020002000cdfd0700b9
:10379c0021022000200020008bfd070004002000e7
:1037ac008400780020002000a2fd070020002000eb
:1037bc0017fd07000c06a9000c26a9000080fa00d2
:1037cc00000006001e00fa00889fbe00600f9800e3
:1037dc004430800004427800f443b2000482fb00c1
:1037ec00c422dd0004802200048f42000002eb00a2
:1037fc00140798006e0a9000240a90000442780086
:10380c00614262009e0278000482fb006102620049
:10381c004922dd00a5039000f6df2f00068363002c
:10382c0006027200a40298001e0278002402900086
:10383c004922de00614262000484fb006e0a9000a3
:10384c001402be004f2ade00840478006e0a900039
:10385c001402be00f2ff2f00f3ff21000400be0093
:10386c0059f607000002be001e039000c433dd00b1
:10387c000680220006834300260798003407980030
:10388c004507980059079800680798006e02900049
:10389c000400a20004f0a7000402ea000402e900fc
:1038ac004f22de0004427800ae0290000482fb003e
:1038bc00610262004922dd00a5039000f6df2f00b3
:1038cc000683630006027200a40298006e02900048
:1038dc000400a20004f0a7000402ea000402e900bc
:1038ec004f22de0004427800ae0290000482fb00fe
:1038fc00610262000402420095037800d6ff2f009b
:10390c000683630006027200840a78005e0290004f
:10391c00e00f52003a003200ae029000150278001f
:10392c000400a000840a78003e029000ce029000b1
:10393c00422ade0084027800f47f20008482620038
:10394c00f47f200004826200f57f200005026200f3
:10395c00ae029000f67f2000060262004222dd00db
:10396c009503780036002e00068363000602720071
:10397c00840a78003e029000ce0290004a2bdd00b3
:10398c004622de0004027300c62ade0084027800a0
:10399c00f4ff200084826200f4ff200004826200a5
:1039ac00f5ff200005026200ae029000f6ff200039
:1039bc00060262009503900006002f000683630048
:1039cc0006027200940298003e02900004427800b5
:1039dc00f443b200f443b200f443b200ae029000e0
:1039ec000482fb004a22dd00a5039000f63f200074
:1039fc000683630006027200a40298001e003700c2
:103a0c00ae029000150278000400a100840a780030
:103a1c00be029000f47f200084826200f47f2000bc
:103a2c0004826200f57f200005026200ae02900065
:103a3c00f67f2000060262004222dd00950378002a
:103a4c0036002e000683630006027200840a78009a
:103a5c002e0290001403900005002f0085026300d5
:103a6c00150298002e02900024039000f53f2000d0
:103a7c008502630025029800ae029000250290009a
:103a8c000400a1000410a1000420a1000430a10036
:103a9c00a4029800ae029000250290000440a10000
:103aac00a4029800ae029000250290000480a100b0
:103abc00a40298006e0a9000240a90000442780038
:103acc00614262009e0278000482fb006102620087
:103adc004922dd00a5039000f6df2f00068363006a
:103aec0006027200a40298006e0a90006c0242005a
:103afc0066024200140378006e0a90006c024200c9
:103b0c0064024200940378006e0a90006c0242003a
:103b1c000482e800140078006e0a90006c024200e7
:103b2c00940078006e0a9000b40290002402900079
:103b3c00040278009e0290004429dd0005802200da
:103b4c008502410075079800040f9800110f98002a
:103b5c00200f9800370f9800460f98000e0a90001f
:103b6c00044278006f426200fe0290000482fb0067
:103b7c006f026200a503900006ff2f00068363000e
:103b8c0006027200a40298007e0290009e0a900029
:103b9c00350298007e0290002e0b90004602980091
:103bac007e029000be0a9000550298007e029000a2
:103bbc004e0b9000660298001e02900004427800a2
:103bcc0015c0b300255f9800345f98000563200092
:103bdc003e5a90000482fb0084824200066320005f
:103bec003e5a90000482fb00040243001442780009
:103bfc000434a000844a78001400200004007800eb
:103c0c004f04be000080fa00000006001000fa000d
:103c1c00700798004430800004427800f443b200ee
:103c2c000482fb00c422dd0004802200048f4200c9
:103c3c004430800004427800f443b2008482fb00dc
:103c4c0014c0b30024479800250798002e0290005a
:103c5c00ef0f520007003600153180002e02900045
:103c6c0070025200042ade000442780061426200b5
:103c7c0005003700053180002e029000042ade007a
:103c8c000442780061426200e04f5200aa00320008
:103c9c001e027800240290006f026200e00f5200b6
:103cac0004003a007e02900015002000250a9800be
:103cbc00030037007e0290008002eb00250a98007a
:103ccc001e0278001402780061026200e00f5200bc
:103cdc001f0032001e027800140278004222de001f
:103cec00f57f20000502620005002000c223dd00e4
:103cfc00060020001e02780094029000f4ff2000c1
:103d0c00048262004622dd00cfa2de0004037300b1
:103d1c00858373001e027800240290004a22de0084
:103d2c00044278000482fb000500200004037300a9
:103d3c008583730004002000050028000402730032
:103d4c00858273007e039000048bbe000800370050
:103d5c001e027800140278004222de00f57f20005b
:103d6c0005026200050020007e039000048bbe005b
:103d7c001e027800240290006f4262000482fb0055
:103d8c00050020007e039000240398003503980062
:103d9c001e0278003402900004427800fe0290006b
:103dac00c44a98001e027800340290004822de00bb
:103dbc0004427800fe029000d44a98001e0278005b
:103dcc004402900004427800fe029000e44a9800fd
:103ddc001e027800440290004822de000442780063
:103dec00fe029000f44a98001e02780054029000e3
:103dfc0004427800fe029000845298001e02780063
:103e0c00540290004822de0004427800fe0290002a
:103e1c00945298001e0278006402900004427800cc
:103e2c00fe029000a45298001e02780064029000da
:103e3c004822de0004427800fe029000b452980042
:103e4c007e0390006022b80044039800550398004c
:103e5c004430800004427800f443b2008482fb00ba
:103e6c0014c0b30064479800450798004e029000b8
:103e7c00ef0f52000a0036004e0290007002520002
:103e8c0015002000042add000482ea008402780078
:103e9c00143180000482620014318800080037005d
:103eac004e02900015002000042add000482ea0076
:103ebc00840278000431800004826200043188009e
:103ecc004430800004427800f443b2008482fb004a
:103edc0014c0b300244f9800650798006e02900040
:103eec00ef0f52000a0036006e0290007002520072
:103efc0015002000042add000482ea008402780008
:103f0c00543180000482620054318800080037006c
:103f1c006e02900015002000042add000482ea00e5
:103f2c0084027800443180000482620044318800ad
:103f3c0014002000010037000002eb0004007800a0
:103f4c000080fa0000000600801f7800849fbe00ed
:103f5c00869fbe000800fa008860a900243080000b
:103f6c00044278000474a1000482fb0005002000c8
:103f7c006033b800049fbe000697be00543080002a
:103f8c0061026200e00f5200010032000a06a90033
:103f9c005430800062026200e00f520001003200d7
:103fac000a26a9000080fa004f03be004f02be0093
:103fbc004f007800004006000a00fa003007980015
:103fcc00014f98000042eb00044f78003e02900035
:103fdc0094027800150798000042eb0044479800c3
:103fec0014c0b30044479800150037004e429000af
:103ffc000482fb0004024200be02900004824200d4
:10400c00940278001e029000848f52000900360042
:10401c004e4290000482fb0004024200be0290005b
:10402c000482420094027800150798004e429000da
:10403c00044f78004e4290000442e8004447980038
:10404c00ce4290000e4a900084cf5200e7ff390018
:10405c001e427800044078000080fa000000060040
:10406c000a00fa0030079800014f98000042eb005c
:10407c00044f78003e0290009402780015079800d7
:10408c000042eb004447980014c0b300444798002a
:10409c00150037004e4290000482fb0004024200df
:1040ac00be02900004824200940278001e0290002e
:1040bc00848f5200090031004e4290000482fb00b4
:1040cc0004024200be029000048242009402780076
:1040dc00150798004e429000044f78004e42900015
:1040ec000442e80044479800ce4290000e4a9000eb
:1040fc0084cf5200e7ff39001e427800044078005c
:10410c000080fa00000006000e00fa00500798002c
:10411c00414f98000042eb00044f78006022b80039
:10412c0014079800250798004e4a90000482fb0063
:10413c00050020000400be0088f307000002be004a
:10414c000401be000000200001f82300cff207009c
:10415c000002be0034079800450798000042eb00af
:10416c00044f7800170037009e4278000582fb0050
:10417c0004024200de029000048242001402780025
:10418c00050020000400be0074f307000002be000e
:10419c003e019000ce0190000400be00c4f3070065
:1041ac000002be000401be001e009000ae00900094
:1041bc0059f207000002be0014079800250798006a
:1041cc001e4fe8004e4a90009e42780084cf520069
:1041dc00e5ff39001e009000ae00900012f30700be
:1041ec000002be0004027800040078000080fa008f
:1041fc00000006000a00fa0030079800014f9800f2
:10420c000042eb00044f78006022b80014079800bd
:10421c00250798000042eb00044f78000e00370091
:10422c009e4278000582fb0004024200be02900010
:10423c000482420014027800050020001e03900046
:10424c00ae0390000602420087824a0014079800d1
:10425c00250798001e4fe8000e4a90009e427800f9
:10426c0084cf5200eeff39001e029000040078004b
:10427c000080fa00000006000600fa002000200072
:10428c009708070000027800040f78006022b8003d
:10429c0014079800250798001e02780005002000de
:1042ac000400be002df307000002be0032332300d1
:1042bc00330524000400be007df307000002be009d
:1042cc0002002c00f34724000400be006ff207002c
:1042dc000002be001407980025079800f2412f0039
:1042ec00430224001e009000ae00900009f207006b
:1042fc000002be001407980025079800d2cc2c00b1
:10430c00c3c423001e009000ae0090005ff20700b3
:10431c000002be000400be000080fa00000006008f
:10432c000e00fa00889fbe008a1f78008f04780068
:10433c000f027800040578000042eb00044f78006f
:10434c000042eb001447980044c0b3004447980067
:10435c0024c0b300544798004e4290008482fb0066
:10436c008502e900350798000482fb000402420034
:10437c000402e8000402e8000402d10084024200b6
:10438c000f027800858747000402e8000402d10080
:10439c0004024200440798000002eb001407980046
:1043ac006022b80054079800650798000042eb00a3
:1043bc00144798003c0037000042eb00044f780093
:1043cc000a0037001e4078000084fb0030002000fb
:1043dc0043080700000278004e0390008802440056
:1043ec0085024300840a78001e4fe8004e4290007c
:1043fc009e42780084cf5200f2ff39004e029000aa
:10440c00ce4090000400780015ff070000427800b1
:10441c000482fb00ce02900004024200048242009f
:10442c008002eb00050a78004e029000ce4090000e
:10443c0004007800e0fe0700004278000482fb00d4
:10444c00ce02900004024200048242008002eb0083
:10445c00050a78004e029000ce40900004007800cf
:10446c0064ff0700000378005e4290008482fb002a
:10447c004e4290000482fb000482e90004aab900b9
:10448c0004027800110009000483d80000027800af
:10449c009e02900004824200140798001e42900075
:1044ac000442e800144798009e4290005e4290003f
:1044bc0084cf5200c0ff39001e029000050020007e
:1044cc000400be00a5f207000002be003233230038
:1044dc00330524000400be00f5f207000002be0004
:1044ec0002002c00f34724000400be00e7f1070093
:1044fc000002be0054079800650798005e0190000a
:10450c00ee019000a0702d003102240081f1070013
:10451c000002be005407980065079800d2cc2c000e
:10452c00c3c423005e009000ee009000d7f107009a
:10453c000002be008a0778000400be0089077800dc
:10454c004f0578004f04be000080fa000000060002
:10455c000800fa000042eb00244798000042eb00f0
:10456c00244798001300370030002000dc070700b8
:10457c0000027800050020000400be0077f207005e
:10458c000002be00d2cc2c00c3d423000400be0019
:10459c00c7f207000002be000400be0022f20700b2
:1045ac000002be00040f78002e4290000442e80086
:1045bc00244798002e429000f34f5200eaff360039
:1045cc009e027800f43f2000110009008482d8007c
:1045dc0000027800050020000400be005ff2070016
:1045ec000002be0032332300330524000400be0059
:1045fc00aff207000002be002407980035079800b0
:10460c000200200003f823002e009000be00900052
:10461c0040f107000002be002407980035079800ff
:10462c00d2cc2c00c3cc23002e009000be009000f6
:10463c0096f107000002be000400be000080fa00e4
:10464c00000006000c00fa00204f98006022b80011
:10465c00048fbe000042eb00444798000042eb0080
:10466c00444798000b0037002e4a90000482fb0050
:10467c00040078009a07070000027800050020006b
:10468c001e0f42005e974a004e4290000442e80022
:10469c00444798004e429000e94f5200f2ff36001a
:1046ac004e4290000482fb00050020000401be0075
:1046bc001e00be00b4f207000002be00048fbe0054
:1046cc001e00be0025f207000002be0002002c00f6
:1046dc00f34724000400be006cf107000002be008a
:1046ec0032332300330524000400be0070f20700af
:1046fc000002be0034079800450798000200200015
:10470c00832c24003e009000ce00900068f207003d
:10471c000002be0034079800450798003e02900046
:10472c00ce0290000400be000080fa0000000600db
:10473c001600fa00889fbe008a9fbe008c9fbe00a8
:10474c006022b800048fbe00045e2100050020002a
:10475c003407980045079800440620000500200007
:10476c0054079800650798000042eb0044479800f6
:10477c000042eb004447980009003700d0002000ad
:10478c005707070000027800050020001e0f4200aa
:10479c005e974a004e4290000442e800444798005d
:1047ac004e429000e94f5200f4ff36004e4290000a
:1047bc000482fb00050020000401be001e00be00a8
:1047cc0071f207000002be00048fbe005e00900074
:1047dc00ee009000e1f107000002be0002002c0088
:1047ec00a36d24000400be0031f207000002be00dd
:1047fc000404be005e009000ee009000d7f10700ac
:10480c000002be0002002c00a36d24000400be00b8
:10481c00c1f007000002be000401be000800be008b
:10482c001af107000002be000404be003e00900016
:10483c00ce009000c9f107000005be005e0090009c
:10484c00ee009000c5f107000002be0002002c0033
:10485c00a36d24000400be0015f207000002be0088
:10486c000406be005e009000ee009000bbf1070055
:10487c000002be0002002c00a36d24000400be0048
:10488c00a5f007000002be000401be000c00be0033
:10489c00fef007000002be000401be000a00be00cc
:1048ac009df007000002be000401be000800be001f
:1048bc00f6f007000002be000200200003082400ee
:1048cc000400be00faf107000002be007407980055
:1048dc00050f98001e00be00a0f107000002be00ec
:1048ec0002002c00f34724000400be00e7f0070090
:1048fc000002be0032332300330524000400be0046
:10490c00ebf107000002be00140f9800250f980071
:10491c001e099000ae09900010ae27004102240041
:10492c007cf007000002be00140f9800250f9800c1
:10493c007e0190008e0990001e089000ae08900039
:10494c00d2f007000002be00140f9800250f98004b
:10495c001e0a9000ae0a90000400be004f06be0076
:10496c004f05be004f04be000080fa000000060098
:10497c002200fa00889fbe008a9fbe008c9fbe005a
:10498c006022b8006033b800049fbe000697be00da
:10499c0084db2300050020006033b8005407980026
:1049ac006507980076079800070f980044062000ca
:1049bc00050020006033b800140f9800250f9800f4
:1049cc00360f9800470f98000042eb00044f9800f8
:1049dc000042eb00044f980011003700c00020008b
:1049ec00bf0607000002780005002000060020002a
:1049fc00070020003e00be002e01be000002420057
:104a0c0081824a0002034b0083834b00049fbe004b
:104a1c000697be000e4a90000442e800044f98002e
:104a2c000e4a9000e94f5200ecff36000e4a9000ff
:104a3c000482fb00050020006033b8003e00be007d
:104a4c002e01be008ef207000203be000002be0063
:104a5c00049fbe000697be001e089000ae08900092
:104a6c003e099000ce0990000df107000002be0037
:104a7c0002002c00a36d24000400be008cf1070082
:104a8c000002be000404be001e089000ae08900098
:104a9c003e099000ce09900001f107000002be0013
:104aac0002002c00a36d24000400be001af00700c5
:104abc000002be000401be000800be0073f0070037
:104acc000002be000404be005e009000ee009000e8
:104adc007e0190008e099000f1f007000005be00e9
:104aec001e089000ae0890003e099000ce09900080
:104afc00ebf007000002be0002002c00a36d2400a6
:104b0c000400be006af107000002be000406be00ed
:104b1c001e089000ae0890003e099000ce0990004f
:104b2c00dff007000002be0002002c00a36d240081
:104b3c000400be00f8ef07000002be000401be0036
:104b4c000c00be0051f007000002be000401be00c4
:104b5c000a00be00f0ef07000002be000401be0018
:104b6c000800be0049f007000002be000200200051
:104b7c00030824000400be004df107000002be0033
:104b8c00540f9800650f98003e00be002e01be0029
:104b9c00c3f007000002be0002002c00f347240003
:104bac000400be0039f007000002be0032332300bf
:104bbc00330524000400be003df107000002be00d6
:104bcc000401be00305c2f0081022400d1ef0700ed
:104bdc000002be00740f9800051798005e09900043
:104bec00ee0990007e0890008e10900027f00700d0
:104bfc000002be00740f9800051798007e0a900002
:104c0c008e1290000400be004f06be004f05be0081
:104c1c004f04be000080fa00000006000400fa00f9
:104c2c00100798001e029000b4029000240290001d
:104c3c00849fbe00845c2900841f780076f30700f3
:104c4c00e68757001e0290001402be00849fbe002f
:104c5c00545d2900841f78006ff30700e687570026
:104c6c000002eb00040f78000c0037009e0290004d
:104c7c001e0378006c02430065427a000482fb003c
:104c8c00841f78009e1f7800f45d2900841f780033
:104c9c0061f30700e68757001e0fe8001e0278003c
:104cac006123b8001e029000b40290002402900010
:104cbc00840f5300858f5b00ecff39001e029000bf
:104ccc00240a9000841f7800e45e2900841f780079
:104cdc0051f30700e48757000080fa00000006003b
:104cec000600fa00200798000002eb00040f780081
:104cfc00c4af8400140798002e0390001400200009
:104d0c000500200024039800350398001e02900033
:104d1c00050020002e039000048bbe00ae02900014
:104d2c0014c0b300c44a980014002000040f78008b
:104d3c001c0037001e0278007622b90004027800ad
:104d4c00ae029000048342001400200005002000f5
:104d5c0024039800350398001e0278007622b900cf
:104d6c0004027800ae029000048342001e02900000
:104d7c000402e800140798001e02900005002000b1
:104d8c00048bbe001e0278007622b9000402780063
:104d9c00ae0290008482420000c2eb00c44a98002c
:104dac001e0fe8001e027800e30f5200e1ff3600f0
:104dbc001e0278007622b90004027800ae02900040
:104dcc00048342001e0290000402e80014079800bd
:104ddc001e02900005002000048bbe001e0278000d
:104dec007622b90004027800ae02900004834200df
:104dfc0024002000050020002403980035039800af
:104e0c001e0278007622b90004027800ae029000ef
:104e1c008482420000c2eb00c44a98001e02780053
:104e2c007622b90004027800ae029000848242001f
:104e3c0000c2eb00d44a980054002000040f780004
:104e4c00310037001e0278007622b9000402780087
:104e5c00ae029000048342001e0290000402e8009f
:104e6c00140798001e02900005002000048bbe0061
:104e7c001e0278007622b90004027800ae0290007f
:104e8c000483420044002000050020002403980005
:104e9c00350398001e0278007622b90004027800cf
:104eac00ae0290008482420000c2eb00c44a98001b
:104ebc001e0278007622b90004027800ae0290003f
:104ecc008482420000c2eb00d44a98001e02780093
:104edc007622b90004027800ae029000848242006f
:104eec0000c2eb00f44a98001e0278007622b9004a
:104efc0004027800ae0290008482420000c2eb00f3
:104f0c00845298001e0fe8001e027800eb0f52002e
:104f1c00ccff36000080fa00000006000600fa0004
:104f2c0010079800414798000042eb00044f7800ae
:104f3c0014c0b300044f7800090037009e4278007b
:104f4c000582fb007622b900040278009e029000d4
:104f5c0004824200040078001afa07001e4fe80091
:104f6c004e4290009e42780084cf5200f3ff3900ed
:104f7c000080fa00000006000800fa0010079800f4
:104f8c00210798006247980024c0b300144798008a
:104f9c006e429000e04f520007003a002e02900043
:104fac00940278002e0290000482e800140278002b
:104fbc00848f5200270032000042eb00044f78002f
:104fcc000d0037001e4278008482fb002e029000f8
:104fdc00140378009e4378000782fb004322dd0017
:104fec000432de00044278001e0390008502430068
:104ffc00c44a98001e4fe8001e4290009e42780062
:10500c0084cf5200efff39001e4290000482fb0057
:10501c00050020001e03900024039800350398001f
:10502c002e02900064024200140278000500200059
:10503c001e039000048bbe001e009000e1f90700d7
:10504c002e0290000482e800ae02900095027800d7
:10505c00050a78000080fa00000006000600fa003d
:10506c00000f780011079800424798004e429000bc
:10507c00e04f520007003a001e0290009442780064
:10508c001e0290000402e8001442780084cf520003
:10509c00170032001e0290000482e80014427800cf
:1050ac000482fb00050020001e037800048bbe0068
:1050bc001e03780014002000050020002403980033
:1050cc00350398001e029000144278009e0278006e
:1050dc00c44a98001e0290008402e8001e02900050
:1050ec0014427800844a78001e007800b5f9070055
:1050fc000080fa00000006000600fa00000f78009d
:10510c0012079800230798001e0278001500200053
:10511c00250a98001e0278001e039000ae03900032
:10512c00068abe001e0378006022b8002403980093
:10513c00350398001e007800a2f907000080fa00e1
:10514c00000006000c00fa00889fbe008a9fbe007b
:10515c003007980041079800224f98006022b80051
:10516c00140798002507980044c0b3001447980012
:10517c000042eb00044f78004e0290001404be0075
:10518c004e029000640242001402be00a299290053
:10519c0093f923000400be00c5ef07000002be0017
:1051ac001ac0b3000401be000800be00f9ee0700ef
:1051bc0000027800e00f5200010034000045eb00c3
:1051cc008a4578000b04a2004e0290001404be0025
:1051dc004e029000640242001402be00d2cc2c009d
:1051ec00c3f423000400be00b1ef07000002be00b0
:1051fc001ac0b3000401be000800be00e7ee0700b1
:10520c0000027800e00f520001003d000045eb0069
:10521c000a4278000404a20004c27500e04f520058
:10522c0003003a002e4a9000e04f52003400320046
:10523c004e0290001402be00140798002507980037
:10524c001e4290000482fb00050020003e039000eb
:10525c0024039800350398004e0290006802420027
:10526c001402be000400be00efee07000002be00f8
:10527c0004027800050020003e039000048bbe0061
:10528c000042eb00044f7800120037009e4078007b
:10529c000183fb001e029000ae0290009e4078003d
:1052ac008183fb00c33bdd00870078008100e900af
:1052bc00030033008502d1000482d300fbff3700ca
:1052cc0004427800be02900086824200c44a9800d4
:1052dc001e4fe8001e4290009e42780084cf520080
:1052ec00eaff39003e00900036f907004e029000ac
:1052fc00640342004e0290001402be00048bbe00f8
:10530c004f05be004f04be000080fa0000000600ee
:10531c001200fa00881f78001007980021079800e7
:10532c0032079800430798005407980065079800c7
:10533c0076079800070f9800c4af8400040f78001c
:10534c001e0290008482e8001e027800044278005d
:10535c00844a78002e0290008482e8001e0fe80038
:10536c001e02780004427800844a78003e029000c5
:10537c008482e8001e0fe8001e02780004427800c8
:10538c00844a78004e0290008482e8001e0fe800e8
:10539c001e02780004427800844a78005e02900075
:1053ac00640242001e0fe8009e027800050a780095
:1053bc006e029000680442001e0fe8001e02780086
:1053cc00050020000400be00e4ee07000002be0051
:1053dc00048cbe007e029000680442001e0fe800a0
:1053ec001e027800050020000400be00dbee070062
:1053fc000002be00048cbe000e0a9000680442003d
:10540c001e0fe8001e027800050020000400be00fc
:10541c00d2ee07000002be00048cbe004eba97000c
:10542c00680442001e0fe8001e02780005002000f0
:10543c000400be00c9ee07000002be00048cbe00d2
:10544c003eba9700680442001e0fe8001e02780066
:10545c00050020000400be00c0ee07000002be00e4
:10546c00048cbe002eba9700680442001e0fe800a0
:10547c001e027800050020000400be00b7ee0700f5
:10548c000002be00048cbe001eba970068044200e5
:10549c001e0fe8001e027800050020000400be006c
:1054ac00aeee07000002be00048cbe000eba9700e0
:1054bc00680442001e0fe8001e0278000500200060
:1054cc000400be00a5ee07000002be00048cbe0066
:1054dc004f0478000080fa00000006001000fa006b
:1054ec00000f7800110798002207980033079800e6
:1054fc0044079800550798006607980077079800ae
:10550c002e0290000482e800144278008482fb0092
:10551c001e029000848f520005003a0012c0b300a6
:10552c00ae0090001e007800ccfe0700a6003700ed
:10553c003e0290000482e800144278008482fb0052
:10554c001e029000848f520005003a0012c0b30076
:10555c00be0090001e007800c0fe07009a003700c5
:10556c004e0290000482e800144278008482fb0012
:10557c001e029000848f520005003a0012c0b30046
:10558c00ce0090001e007800b4fe07008e0037009d
:10559c005e0290000482e800144278008482fb00d2
:1055ac001e029000848f520005003a0012c0b30016
:1055bc00de0090001e007800a8fe07008200370075
:1055cc006e02900064024200940278001e02900069
:1055dc00848f520005003a0012c0b300ee00900018
:1055ec001e00780064fe0700770037007e029000f2
:1055fc00680242001402be000400be000aee07005e
:10560c000002be00840278001e029000848f5200bb
:10561c0005003a0012c0b300fe0090001e00780096
:10562c00c8fe0700680037004eba970068024200b7
:10563c001402be000400be00fbed07000002be0019
:10564c00840278001e029000848f520005003a00fc
:10565c0012c0b300ceb897001e007800b9fe070048
:10566c00590037003eba9700680242001402be008f
:10567c000400be00eced07000002be0084027800be
:10568c001e029000848f520005003a0012c0b30035
:10569c00beb897001e007800aafe07004a0037002b
:1056ac002eba9700680242001402be000400be002d
:1056bc00dded07000002be00840278001e0290009f
:1056cc00848f520005003a0012c0b300aeb89700a8
:1056dc001e0078009bfe07003b0037001eba9700a7
:1056ec00680242001402be000400be00ceed0700aa
:1056fc000002be00840278001e029000848f5200cb
:10570c0005003a0012c0b3009eb897001e00780046
:10571c008cfe07002c0037000eba9700680242007e
:10572c001402be000400be00bfed07000002be0064
:10573c00840278001e029000848f520005003a000b
:10574c0012c0b3008eb897001e0078007dfe0700d3
:10575c001d0037007eb29700680242001402be00a2
:10576c000400be00b0ed07000002be008402780009
:10577c001e029000848f520005003a0012c0b30044
:10578c00feb097001e0078006efe07000e0037007a
:10579c006eb29700680242001402be000400be0004
:1057ac00a1ed07000002be00840278001e029000ea
:1057bc00848f520004003a0012c0b300eeb0970080
:1057cc001e0078005ffe07000080fa000000060053
:1057dc000200fa00000f78001e02e800544c88000a
:1057ec008a29ed008a09e20005003200dc05080078
:1057fc00010000000000000000000000f8ff37006e
:10580c000080fa00000006000200fa000042eb00e3
:10581c00044f78000042eb00144798000e02e80099
:10582c000400780011000700c006200001002000d1
:10583c005f0607001e429000044f78000e02e8003d
:10584c0004007800090007001e4290009e42780078
:10585c0084cf5200f1ff3a001e4290000482fb00fc
:10586c00744c88000080fa00000006000200fa0068
:10587c00000f7800941780004822de00614262001d
:10588c009e027800844a7800941780004622de003d
:10589c006142620004424200844278001e02780099
:1058ac001442780004c272009e027800844a780088
:1058bc00941780004722de00614262000482fb00e4
:1058cc004222dd00844278001e02780014427800e7
:1058dc0004c272009e027800844a78001e0278008e
:1058ec0014427800674262009e027800844a780075
:1058fc000080fa00000006000400fa00100798006f
:10590c000042eb00044f78001e029000e10f5200a1
:10591c0007003a00244b8000354b80000400be0089
:10592c0041ed07000002be00044f7800060037006e
:10593c001e029000e00f520003003a0084962000f3
:10594c0014427800044f780044c6b3009e4278009d
:10595c0084cf52000200360044c6b300044f7800d6
:10596c002497200014427800e04f520006003a00c1
:10597c00744c800004427800844078001e4078000b
:10598c00df0007000b00370024972000144278003a
:10599c00e14f520007003a00744c8000044278003a
:1059ac0075c0b30004c25200844078001e407800d9
:1059bc00d30007000080fa00000006000400fa0083
:1059cc00100798000042eb00044f78001e02900074
:1059dc00e10f520007003a00244b8000354b800049
:1059ec000400be0010ed07000002be00044f78005a
:1059fc00060037001e029000e00f520003003a0030
:105a0c00b496200014427800044f780044c6b300ca
:105a1c009e42780084cf52000200360044c6b30088
:105a2c00044f78002497200014427800e04f520075
:105a3c0006003a00744c80000442780084407800e0
:105a4c001e4078000e0007000b0037002497200042
:105a5c0014427800e14f520007003a00744c800069
:105a6c000442780075c0b30004c252008440780030
:105a7c001e407800020007000080fa0000000600bb
:105a8c000600fa0040479800514798004e4290009b
:105a9c000482fb00cfa2de000400be00fdec070078
:105aac000002be0002002000832c24000400be0073
